:020000040800F2
:100000000050002071280008112800081D28000851
:1000100023280008292800082F28000800000000D5
:10002000000000000000000000000000352800086B
:1000300041280008000000004D2800085928000849
:10004000B9280008B9280008B9280008B92800080C
:10005000B9280008B9280008B9280008B9280008FC
:10006000B9280008B9280008B9280008B9280008EC
:10007000B9280008B9280008B9280008B9280008DC
:10008000B9280008B9280008B9280008B9280008CC
:10009000B9280008B9280008B9280008B9280008BC
:1000A000B9280008B9280008B9280008B9280008AC
:1000B000B9280008B9280008B9280008B92800089C
:1000C000B9280008B9280008B9280008B92800088C
:1000D000B9280008B9280008B9280008B92800087C
:1000E000B9280008B9280008B92800080000000055
:1000F0000000000000000000000000000000000000
:0C01000000000000000000005FF808F1A3
:10010C0010B5054C237833B9044B13B10448AFF345
:10011C0000800123237010BD0C00002000000000A3
:10012C001429000808B5034B1BB103490348AFF36E
:10013C00008008BD000000001000002014290008F9
:10014C0080B483B000AF78609A4A9A4BD3F80032EF
:10015C0043F00103C2F800329649964BD3F81C3297
:10016C007A68927B104601228240D2431340C1F838
:10017C001C3290498F4BD3F804327A68927B10462C
:10018C0001228240D24313407A68D27B10467A68AF
:10019C00927B00FA02F21343C1F804328549854B75
:1001AC00D3F80C327A68927B104601228240D243FB
:1001BC0013407A68127C10467A68927B00FA02F23D
:1001CC001343C1F80C327B497A4BD3F814327A685A
:1001DC00927B104601228240D24313407A68928966
:1001EC0010467A68927B00FA02F21343C1F814327B
:1001FC007049704BD3F81C327A68927B10460122FE
:10020C008240D24313407A68527C10467A68927BC3
:10021C0000FA02F21343C1F81C327B681B7C002BE2
:10022C0055D0012B40F0B8807B68DB7B002B02D0D3
:10023C00012B2DD0B0E05F4A7B68DB7B4833DB00C1
:10024C00134400225A605B4A7B68DB7B48330021F5
:10025C0042F8331057497B68DB7B18467B681B8957
:10026C001B047A6852891A4300F14803DB000B44E3
:10027C005A6050497B68DB7B18467B685B881B04A3
:10028C007A6812881A4300F1480341F833201DE0C4
:10029C0048497B689B7B18467B685B881B047A68A3
:1002AC0012881A4300F1480341F8332041497B6816
:1002BC009B7B18467B68DB881B047A6892881A4300
:1002CC0000F14803DB000B445A6000BF64E07B681C
:1002DC00DB7B002B02D0012B3ED05CE0354A7B68E7
:1002EC009B7B18467B681B88194600F1480342F833
:1002FC003310304A7B689B7B18467B689B88194679
:10030C0000F14803DB00134459602A497B689B7B4E
:10031C001846284A7B689B7B483352F833207B680D
:10032C005B891B041A4300F1480341F8332021492F
:10033C007B689B7B18461F4A7B689B7B4833DB00A2
:10034C0013445A687B681B891B041A4300F1480349
:10035C00DB000B445A601EE016497B689B7B1846F9
:10036C007B681B881A467B685B881B041A4300F168
:10037C00480341F833200F497B689B7B18467B6808
:10038C009B881A467B68DB881B041A4300F14803E0
:10039C0041F8332000BF00BF064A064BD3F80032A9
:1003AC0023F00103C2F8003200BF0C37BD4680BCFD
:1003BC00704700BF0064004080B485B000AFF860A7
:1003CC000B467A60FB72FB7A002B02D0012B07D014
:1003DC000FE0FB68DB6803F00303002B08D1C9E0D6
:1003EC00FB681B6903F00303002B00F0C28000E0E4
:1003FC0000BFFB7AFA681B331B0113441B689B0874
:10040C00DBB203F00103DAB27B681A727B681B7AE9
:10041C00002B02D0012B0DD018E0FB7AFA681B33AD
:10042C001B0113441B685B0D9BB2C3F30A027B6870
:10043C001A600BE0FB7AFA681B331B0113441B6830
:10044C00DB0823F060427B685A6000BFFB7AFA68D5
:10045C001B331B0113441B685B08DBB203F0010365
:10046C00DAB27B685A72FB7AFA681B331B011344AD
:10047C0004331B68DBB203F00F03DAB27B689A72A9
:10048C00FB7AFA681B331B01134404331B681B0AE9
:10049C00DBB203F00F03DAB27B68DA74FB7AFA682A
:1004AC001B01134403F5DC731B68DAB27B68DA7248
:1004BC00FB7AFA681B01134403F5DC731B681B0AF7
:1004CC00DAB27B681A73FB7AFA681B01134403F5E2
:1004DC00DC731B681B0CDAB27B685A73FB7AFA6804
:1004EC001B01134403F5DC731B681B0EDAB27B682B
:1004FC009A73FB7AFA681B01134403F5DE731B68CD
:10050C00DAB27B68DA73FB7AFA681B01134403F5E1
:10051C00DE731B681B0ADAB27B681A74FB7AFA6802
:10052C001B01134403F5DE731B681B0CDAB27B68EA
:10053C005A74FB7AFA681B01134403F5DE731B68CB
:10054C001B0EDAB27B689A74FB7A002B02D0012B5B
:10055C0007D00FE0FB68DB6843F02002FB68DA6031
:10056C0008E0FB681B6943F02002FB681A6100BFBE
:10057C0000E000BF1437BD4680BC704780B487B024
:10058C0000AFF860B96011461A460B46FB71134672
:10059C00BB7100237B6100233B8297F8203003F072
:1005AC00010387F82030FB79002B02D0012B46D0B9
:1005BC00ACE0FB68C3F30A03FB60BB79002B1ED0D5
:1005CC00012B00D0A2E0FB7903F00103DAB23B7DF2
:1005DC0062F382033B7597F8203003F00103DAB223
:1005EC003B7D62F341033B75FB689BB2C3F30A038B
:1005FC009AB2FB8A62F34F13FB827B6987E0FB792B
:10060C0003F00103DAB23B7D62F382033B7597F88A
:10061C00203003F00103DAB23B7D62F341033B75FA
:10062C00FB68DBB203F00703DAB23B7C62F34713DF
:10063C003B74FB68DB08DBB27B743B8A67E0FB68CE
:10064C00C3F30A03FB60BB68C3F31103BB60BB7944
:10065C00002B31D0012B00D058E0FB7903F00103C3
:10066C00DAB23B7D62F382033B7597F8203003F0DE
:10067C000103DAB23B7D62F341033B75FB689BB22D
:10068C00C3F30A039AB2FB8A62F34F13FB82BB6873
:10069C009BB2C3F30C039AB2BB8A62F3CF03BB8247
:1006AC00BB685B0BDBB203F01F03DAB2BB7D62F3FA
:1006BC000403BB757B692AE0FB7903F00103DAB212
:1006CC003B7C62F3C3033B7497F8203003F00103C7
:1006DC00DAB23B7C62F304133B74FB68DBB203F0CD
:1006EC000703DAB23B7C62F347133B74FB68DB080D
:1006FC00DBB27B74BB68DB0BDBB203F00703DAB253
:10070C003B7C62F302033B743B8A00E000231846F7
:10071C001C37BD4680BC704780B58CB002AF78608A
:10072C000B46FB706C4B1B78DBB21C2B01D10823E6
:10073C00CDE0002387F8273000233B62FB78002BA9
:10074C0002D0012B0AD016E0FA7800230093012383
:10075C0000217868FFF712FF38620CE07B68980C78
:10076C007B68C3F31101FA78002300930123FFF790
:10077C0005FF386200BF0023FB770123BB773BE00A
:10078C00564BD3F81C32FA7F012101FA02F21A40BF
:10079C00FB7F22FA03F3002B09D10023BB774E4BCE
:1007AC001B78DBB20133DAB24B4B1A7027E04B4AA1
:1007BC00FB7F483352F83330002B07D0474AFB7F7E
:1007CC004833DB0013445B68002B12D1434AFB7F98
:1007DC00483352F83330002B01D1012300E00223BF
:1007EC00BB773D4B1B78DBB20133DAB23A4B1A7054
:1007FC0005E0FB7F0133FB77FB7F1B2BC0D9FB7F15
:10080C001C2B06D197F8273043F0080387F82730C4
:10081C005BE007F10C0300221A605A609A60DA6000
:10082C001A820123FB7600233B8301237B77012370
:10083C003B77FB7FBB76BB7F012B10D0022B27D0E5
:10084C00002B00D03BE03B6A9BB2BB813B6A1B0C8C
:10085C009BB2FB8100233B8200237B822FE03B6A0F
:10086C009BB2BB813B6A1B0C9BB2FB811B4AFB7F7F
:10087C004833DB0013445B689BB23B82174AFB7F17
:10088C004833DB0013445B681B0C9BB27B8216E085
:10089C003B6A9BB23B823B6A1B0C9BB27B820F4A2E
:1008AC00FB7F483352F833309BB2BB810B4AFB7F42
:1008BC00483352F833301B0C9BB2FB8100BF07F15D
:1008CC000C031846FFF73CFC00BF97F8273018467E
:1008DC002837BD4680BD00BF2800002000640040C2
:1008EC0080B58AB000AFF860B9607A60FB68002B05
:1008FC0002D0BB68002B01D1042352E0002387F8FF
:10090C00273007F1100300221A605A609A60DA60EF
:10091C001A61264BDB6803F00303002B07D007F1A9
:10092C0010031A4600212148FFF746FD14E01F4B27
:10093C001B6903F00303002B07D007F110031A46C1
:10094C0001211A48FFF738FD06E097F8273043F0ED
:10095C00200387F8273022E0BA7EBB681A70002388
:10096C0087F8263010E097F82630FA68134497F889
:10097C00262007F128010A4412F80D2C1A7097F85A
:10098C002630013387F82630BB7E97F826209A4212
:10099C00E9D37B69DA023B691A437B681A6097F8E2
:1009AC00273018462837BD4680BD00BF0064004084
:1009BC0080B500AF084A084B1B6843F01003136066
:1009CC00032000F043FC002000F008F801F002FEC8
:1009DC000023184680BD00BF0020024080B582B0C5
:1009EC0000AF7860124B1A68124B1B7819464FF403
:1009FC007A73B3FBF1F3B2FBF3F3184600F04DFC42
:100A0C000346002B01D001230EE07B680F2B0AD884
:100A1C00002279684FF0FF3000F023FC064A7B6817
:100A2C001360002300E0012318460837BD4680BD43
:100A3C0008000020040000200000002080B400AF5B
:100A4C00054B1B781A46054B1B681344034A13606D
:100A5C0000BFBD4680BC7047040000202C00002065
:100A6C0080B400AF024B1B681846BD4680BC704773
:100A7C002C00002080B586B000AF78600023FB7599
:100A8C0000233B610023BB600023FB607B68002BD1
:100A9C0001D10123BEE07B689B68002B7B689B6ABD
:100AAC00002B09D17B680022DA627B68002283F874
:100ABC002420786801F0C0FD786800F005F9034641
:100ACC00FB757B689B6A03F01003002B40F0998048
:100ADC00FB7D002B40F095807B689B6A23F4885348
:100AEC0023F0020343F002027B689A627B685A6827
:100AFC007B68DB691A437B681B7B5B001343BA681A
:100B0C001343BB607B689B68B3F5807F03D07B6825
:100B1C009B68012B02D14FF4807300E000233A69EB
:100B2C0013433B617B681B7D012B19D17B681B7BBD
:100B3C00002B09D17B689B69013B5A033B6913432A
:100B4C0043F400633B610BE07B689B6A43F020023B
:100B5C007B689A627B68DB6A43F001027B68DA622D
:100B6C007B681B687A681268526822F469413A699A
:100B7C000A435A607B681A687B681B689968274B24
:100B8C000B40B9680B4393607B689B68B3F5807F1F
:100B9C0003D07B689B68012B04D17B681B69013BEC
:100BAC001B05FB607B681B687A681268D26A22F4AA
:100BBC007001FA680A43DA627B681B689A68184B02
:100BCC001340BA6893420BD17B680022DA627B68CF
:100BDC009B6A23F0030343F001027B689A6218E0DE
:100BEC007B689B6A23F0120343F010027B689A62C5
:100BFC007B68DB6A43F001027B68DA620123FB75D8
:100C0C0007E07B689B6A43F010027B689A620123C1
:100C1C00FB75FB7D18461837BD4680BDFDF7E1FF1F
:100C2C00FE0E1FFF80B584B000AF78600023FB6020
:100C3C000023BB607B681B689B6803F00103012BDE
:100C4C0039D07B681B687A681268926842F001029E
:100C5C009A601B4B1B681B4AA2FB03239B0CBB60BB
:100C6C0002E0BB68013BBB60BB68002BF9D1FFF70E
:100C7C00F7FEF86018E0FFF7F3FE0246FB68D31AA4
:100C8C00022B11D97B689B6A43F010027B689A6235
:100C9C007B68DB6A43F001027B68DA627B680022C6
:100CAC0083F82420012307E07B681B689B6803F012
:100CBC000103012BDFD1002318461037BD4680BD40
:100CCC000800002083DE1B4380B584B000AF786041
:100CDC000023FB607B681B689B6803F00103012BFE
:100CEC0027D17B681B687A681268926822F001022F
:100CFC009A60FFF7B5FEF86014E0FFF7B1FE02460C
:100D0C00FB68D31A022B0DD97B689B6A43F0100247
:100D1C007B689A627B68DB6A43F001027B68DA626B
:100D2C00012307E07B681B689B6803F00103012B20
:100D3C00E3D0002318461037BD4680BD90B587B070
:100D4C0000AF78600023FB750023FB607B6893F891
:100D5C002430012B01D1022386E07B68012283F829
:100D6C0024207868FFF7B0FF0346FB75FB7D002B52
:100D7C0075D17B689B6A23F4885323F0020343F0FC
:100D8C0002027B689A623A4B1C68022001F0D6F88A
:100D9C000346B4FBF3F35B00FB6002E0FB68013B32
:100DAC00FB60FB68002BF9D17868FFF73BFF7B6891
:100DBC001B687A681268926842F008029A60FFF722
:100DCC004FFE386114E0FFF74BFE02463B69D31A25
:100DDC000A2B0DD97B689B6A23F0120343F0100297
:100DEC007B689A627B68002283F8242001233BE015
:100DFC007B681B689B6803F00803002BE3D17B68BE
:100E0C001B687A681268926842F004029A60FFF7D5
:100E1C0027FE386114E0FFF723FE02463B69D31A24
:100E2C000A2B0DD97B689B6A23F0120343F0100246
:100E3C007B689A627B68002283F82420012313E0EC
:100E4C007B681B689B6803F00403002BE3D17B6871
:100E5C009B6A23F0030343F001027B689A627B6870
:100E6C00002283F82420FB7D18461C37BD4690BD1C
:100E7C000800002080B584B000AF78607B68002B40
:100E8C0001D10123ECE07B6893F82030DBB2002B1E
:100E9C0002D1786801F00CFC7B681B687A681268D8
:100EAC00126822F002021A60FFF7DAFDF86012E015
:100EBC00FFF7D6FD0246FB68D31A0A2B0BD97B68C9
:100ECC005B6A43F400327B685A627B68052283F8C4
:100EDC0020200123C4E07B681B685B6803F00203DD
:100EEC00002BE5D17B681B687A681268126842F0A7
:100EFC0001021A60FFF7B4FDF86012E0FFF7B0FDD5
:100F0C000246FB68D31A0A2B0BD97B685B6A43F445
:100F1C0000327B685A627B68052283F8202001230B
:100F2C009EE07B681B685B6803F00103002BE5D037
:100F3C007B681B7E012B08D17B681B687A68126862
:100F4C00126842F080021A6007E07B681B687A68BE
:100F5C001268126822F080021A607B685B7E012B9B
:100F6C0008D17B681B687A681268126842F04002EC
:100F7C001A6007E07B681B687A681268126822F0B6
:100F8C0040021A607B689B7E012B08D17B681B6832
:100F9C007A681268126842F020021A6007E07B68D7
:100FAC001B687A681268126822F020021A607B684B
:100FBC00DB7E012B08D17B681B687A68126812688B
:100FCC0022F010021A6007E07B681B687A681268CE
:100FDC00126842F010021A607B681B7F012B08D14B
:100FEC007B681B687A681268126842F008021A6003
:100FFC0007E07B681B687A681268126822F00802A6
:10100C001A607B685B7F012B08D17B681B687A6850
:10101C001268126842F004021A6007E07B681B68D1
:10102C007A681268126822F004021A607B681B68E6
:10103C007A6891687A68D26811437A6812691143A8
:10104C007A68526911437A685268013A0A43DA6144
:10105C007B6800225A627B68012283F820200023DF
:10106C0018461037BD4680BD80B584B000AF78609F
:10107C007B6893F82030DBB2012B2ED17B680222E7
:10108C0083F820207B681B687A681268126822F04B
:10109C0001021A60FFF7E4FCF86012E0FFF7E0FCD5
:1010AC000246FB68D31A0A2B0BD97B685B6A43F4A4
:1010BC0000327B685A627B68052283F8202001236A
:1010CC0012E07B681B685B6803F00103002BE5D121
:1010DC007B6800225A62002306E07B685B6A43F45B
:1010EC0000227B685A62012318461037BD4680BD2A
:1010FC0080B485B000AF78607B6803F00703FB60B9
:10110C000C4BDB68BB60BA684FF6FF031340BB6047
:10111C00FB681A02BB68134343F0BF6343F400330C
:10112C00BB60044ABB68D36000BF1437BD4680BCAB
:10113C00704700BF00ED00E080B400AF044BDB68EB
:10114C001B0A03F007031846BD4680BC704700BF5E
:10115C0000ED00E080B483B000AF03463960FB7152
:10116C0097F90730002B0ADB0D4997F907303A68DD
:10117C00D2B21201D2B20B4483F800230AE009491F
:10118C00FB7903F00F03043B3A68D2B21201D2B2DE
:10119C000B441A7600BF0C37BD4680BC704700BFAD
:1011AC0000E100E000ED00E080B489B000AFF86031
:1011BC00B9607A60FB6803F00703FB61FB69C3F15C
:1011CC000703042B28BF0423BB61FB690433062BE4
:1011DC0002D9FB69033B00E000237B610122BB6960
:1011EC0002FA03F35A1EBB681A407B699A4001212C
:1011FC007B6901FA03F3591E7B680B4013431846B5
:10120C002437BD4680BC704780B582B000AF786093
:10121C007B68013BB3F1807F01D301230FE00A4AC5
:10122C007B68013B53600F214FF0FF30FFF792FFBB
:10123C00054B00229A60044B07221A6000231846C3
:10124C000837BD4680BD00BF10E000E080B582B01D
:10125C0000AF78607868FFF74BFF00BF0837BD46DA
:10126C0080BD80B586B000AF0346B9607A60FB7371
:10127C0000237B61FFF760FF78617A68B968786951
:10128C00FFF792FF024697F90F3011461846FFF709
:10129C0061FF00BF1837BD4680BD80B582B000AF7E
:1012AC0078607868FFF7B0FF034618460837BD46EC
:1012BC0080BD000080B48BB000AF78603960002333
:1012CC007B6200233B6227E101227B6A02FA03F373
:1012DC00FB613B681A68FB691340BB61BA69FB6927
:1012EC009A4240F016813B685B68122B34D0122B6B
:1012FC000DD8022B2BD0022B04D8002B31D0012B74
:10130C001CD048E0032B43D0112B1BD043E0894A5F
:10131C00934226D0874A934206D8874A934220D0DC
:10132C00864A93421DD036E0854A934219D0854AAD
:10133C00934216D0844A934213D02CE03B68DB686E
:10134C003B6228E03B68DB6804333B6223E03B688C
:10135C00DB6808333B621EE03B68DB680C333B62A6
:10136C0019E03B689B68002B02D104233B6212E01E
:10137C003B689B68012B05D108233B627B68FA69AB
:10138C001A6108E008233B627B68FA695A6102E043
:10139C0000233B6200BFBB69FF2B01D87B6801E0D7
:1013AC007B6804337B61BB69FF2B02D87B6A9B0093
:1013BC0002E07B6A083B9B003B617B691A680F214A
:1013CC003B6901FA03F3DB431A40396A3B6901FAC2
:1013DC0003F31A437B691A603B685B6803F0805324
:1013EC00002B00F09680594A584B9B6943F001033F
:1013FC009361564B9B6903F00103BB60BB68544A75
:10140C007B6A9B08023352F82330FB607B6A03F043
:10141C0003039B000F2202FA03F3DB43FA68134029
:10142C00FB607B684B4A934213D07B684A4A9342D9
:10143C000DD07B68494A934207D07B68484A934257
:10144C0001D1032306E0042304E0022302E001237C
:10145C0000E000237A6A02F0030292009340FA68DB
:10146C001343FB603A497B6A9B080233FA6841F8E4
:10147C0023203B685B6803F48033002B06D039498A
:10148C00384B1A68BB6913430B6006E03549354B82
:10149C001A68BB69DB4313400B603B685B6803F461
:1014AC000033002B06D02F492E4B5A68BB691343CF
:1014BC004B6006E02B492B4B5A68BB69DB4313404E
:1014CC004B603B685B6803F48013002B06D0254906
:1014DC00244B9A68BB6913438B6006E02149214B6E
:1014EC009A68BB69DB4313408B603B685B6803F411
:1014FC000013002B06D01B491A4BDA68BB69134347
:10150C00CB6006E01749174BDA68BB69DB43134025
:10151C00CB607B6A01337B623B681A687B6A22FA78
:10152C0003F3002B7FF4D0AE00BF2C37BD4680BC3C
:10153C00704700BF000021100000111000001210B5
:10154C000000311000003210000022100010024088
:10155C000000014000080140000C01400010014057
:10156C00001401400004014080B483B000AF7860E7
:10157C000B467B8013467B707B78002B03D07A88DC
:10158C007B681A6103E07B881A047B681A6100BFD0
:10159C000C37BD4680BC704780B586B000AF786014
:1015AC007B68002B01D101236CE27B681B6803F084
:1015BC000103002B00F08780924B5B6803F00C0357
:1015CC00042B0CD08F4B5B6803F00C03082B12D14F
:1015DC008C4B5B6803F48033B3F5803F0BD1894BA4
:1015EC001B6803F40033002B6CD07B685B68002B0A
:1015FC0068D1012346E27B685B68B3F5803F06D176
:10160C00804A804B1B6843F4803313602EE07B6868
:10161C005B68002B0CD17B4A7A4B1B6823F480331C
:10162C001360784A774B1B6823F4802313601DE00A
:10163C007B685B68B3F5A02F0CD1724A714B1B68A9
:10164C0043F4802313606F4A6E4B1B6843F4803362
:10165C0013600BE06B4A6B4B1B6823F480331360F5
:10166C00684A684B1B6823F4802313607B685B68B3
:10167C00002B13D0FFF7F4F9386108E0FFF7F0F90D
:10168C0002463B69D31A642B01D90323FAE15D4B63
:10169C001B6803F40033002BF0D014E0FFF7E0F9E3
:1016AC00386108E0FFF7DCF902463B69D31A642B7A
:1016BC0001D90323E6E1534B1B6803F40033002BE1
:1016CC00F0D100E000BF7B681B6803F00203002B25
:1016DC0063D04C4B5B6803F00C03002B0BD0494BD5
:1016EC005B6803F00C03082B1CD1464B5B6803F4BE
:1016FC008033002B16D1434B1B6803F00203002BE5
:10170C0005D07B681B69012B01D00123BAE13D494F
:10171C003C4B1B6823F0F8027B685B69DB001343CE
:10172C000B603AE07B681B69002B20D0364B012202
:10173C001A60FFF795F9386108E0FFF791F9024656
:10174C003B69D31A022B01D903239BE12D4B1B6858
:10175C0003F00203002BF0D02A492A4B1B6823F01C
:10176C00F8027B685B69DB0013430B6015E0264BCA
:10177C0000221A60FFF774F9386108E0FFF770F97E
:10178C0002463B69D31A022B01D903237AE11D4B84
:10179C001B6803F00203002BF0D17B681B6803F07D
:1017AC000803002B3AD07B689B69002B19D0174B90
:1017BC0001221A60FFF754F9386108E0FFF750F97D
:1017CC0002463B69D31A022B01D903235AE10D4B74
:1017DC005B6A03F00203002BF0D0012000F0DAFA70
:1017EC001CE00A4B00221A60FFF73AF938610FE04F
:1017FC00FFF736F902463B69D31A022B08D90323AB
:10180C0040E100BF0010024000004242800442420E
:10181C009E4B5B6A03F00203002BE9D17B681B68CB
:10182C0003F00403002B00F0A6800023FB75974BFC
:10183C00DB6903F08053002B0DD1944A934BDB6989
:10184C0043F08053D361914BDB6903F08053BB6051
:10185C00BB680123FB758E4B1B6803F48073002B54
:10186C0018D18B4A8A4B1B6843F480731360FFF7C3
:10187C00F7F8386108E0FFF7F3F802463B69D31A32
:10188C00642B01D90323FDE0814B1B6803F48073A7
:10189C00002BF0D07B68DB68012B06D17B4A7B4B9D
:1018AC001B6A43F0010313622DE07B68DB68002B9D
:1018BC000CD1764A754B1B6A23F001031362734AF1
:1018CC00724B1B6A23F0040313621CE07B68DB6819
:1018DC00052B0CD16D4A6D4B1B6A43F0040313624C
:1018EC006A4A6A4B1B6A43F0010313620BE0674AB6
:1018FC00664B1B6A23F001031362644A634B1B6A39
:10190C0023F0040313627B68DB68002B15D0FFF710
:10191C00A7F838610AE0FFF7A3F802463B69D31A2F
:10192C0041F28832934201D90323ABE0574B1B6A37
:10193C0003F00203002BEED014E0FFF791F83861AE
:10194C000AE0FFF78DF802463B69D31A41F2883260
:10195C00934201D9032395E04C4B1B6A03F002031D
:10196C00002BEED1FB7D012B05D1484A474BDB699F
:10197C0023F08053D3617B68DB69002B00F08180FE
:10198C00424B5B6803F00C03082B61D07B68DB696E
:10199C00022B46D13F4B00221A60FFF761F83861E9
:1019AC0008E0FFF75DF802463B69D31A022B01D918
:1019BC00032367E0354B1B6803F00073002BF0D159
:1019CC007B681B6AB3F5803F08D130492F4B5B68AD
:1019DC0023F400327B689B6813434B602B482B4BE2
:1019EC005B6823F474127B68196A7B685B6A0B432F
:1019FC0013434360274B01221A60FFF731F838611B
:101A0C0008E0FFF72DF802463B69D31A022B01D9E7
:101A1C00032337E01D4B1B6803F00073002BF0D041
:101A2C002FE01C4B00221A60FFF71AF8386108E00F
:101A3C00FFF716F802463B69D31A022B01D9032390
:101A4C0020E0124B1B6803F00073002BF0D118E060
:101A5C007B68DB69012B01D1012313E00B4B5B6825
:101A6C00FB60FB6803F480327B681B6A9A4206D1E8
:101A7C00FB6803F470127B685B6A9A4201D0012305
:101A8C0000E0002318461837BD4680BD0010024008
:101A9C00007000406000424280B584B000AF7860B6
:101AAC0039607B68002B01D10123D0E06A4B1B68A5
:101ABC0003F007023B689A4210D26749664B1B68D9
:101ACC0023F007023B6813430B60634B1B6803F066
:101ADC0007023B689A4201D00123B8E07B681B687F
:101AEC0003F00203002B20D07B681B6803F0040377
:101AFC00002B05D0594A594B5B6843F4E0635360A3
:101B0C007B681B6803F00803002B05D0534A534B2A
:101B1C005B6843F4605353605049504B5B6823F04F
:101B2C00F0027B689B6813434B607B681B6803F077
:101B3C000103002B40D07B685B68012B07D1474B1E
:101B4C001B6803F40033002B15D101237FE07B6865
:101B5C005B68022B07D1414B1B6803F00073002B11
:101B6C0009D1012373E03D4B1B6803F00203002BEA
:101B7C0001D101236BE03949384B5B6823F0030238
:101B8C007B685B6813434B60FEF76AFFF8600AE002
:101B9C00FEF766FF0246FB68D31A41F28832934285
:101BAC0001D9032353E02D4B5B6803F00C027B68D7
:101BBC005B689B009A42EBD1274B1B6803F0070232
:101BCC003B689A4210D92449234B1B6823F0070227
:101BDC003B6813430B60204B1B6803F007023B6808
:101BEC009A4201D0012332E07B681B6803F00403A6
:101BFC00002B08D01949194B5B6823F4E0627B6811
:101C0C00DB6813434B607B681B6803F00803002BF5
:101C1C0009D01249114B5B6823F460527B681B6935
:101C2C00DB0013434B6000F021F801460B4B5B6863
:101C3C001B0903F00F030A4AD35C21FA03F3094A88
:101C4C001360094B1B681846FEF7C8FE00231846A4
:101C5C001037BD4680BD00BF00200240001002407E
:101C6C0054290008080000200000002090B48AB01D
:101C7C0000AF2A4B3C1D0FCB84E80F00284B1B8870
:101C8C003B800023FB610023BB6100237B620023AC
:101C9C007B6100233B62234B5B68FB61FB6903F0B8
:101CAC000C03042B02D0082B03D02DE01E4B3B62FF
:101CBC002DE0FB699B0C03F00F0307F12802134482
:101CCC0013F8243C7B61FB6903F48033002B13D0A5
:101CDC00144B5B685B0C03F0010307F128021344FF
:101CEC0013F8283CBB617B690F4A02FB03F2BB690A
:101CFC00B2FBF3F37B6204E07B690C4A02FB03F357
:101D0C007B627B6A3B6202E0074B3B6200BF3B6A33
:101D1C0018462837BD4690BC704700BF2C290008D8
:101D2C003C2900080010024000127A0000093D0016
:101D3C0080B400AF024B1B681846BD4680BC704790
:101D4C000800002080B500AFFFF7F2FF0146054BFD
:101D5C005B681B0A03F00703034AD35C21FA03F305
:101D6C00184680BD001002406429000880B500AF01
:101D7C00FFF7DEFF0146054B5B68DB0A03F0070348
:101D8C00034AD35C21FA03F3184680BD00100240CD
:101D9C006429000880B485B000AF78600A4B1B68DA
:101DAC000A4AA2FB03235B0A7A6802FB03F3FB607B
:101DBC0000BFFB685A1EFA60002BF9D100BF143724
:101DCC00BD4680BC704700BF08000020D34D621098
:101DDC0080B586B000AF786000233B610023FB60C8
:101DEC007B681B6803F00103002B7DD00023FB757F
:101DFC004F4BDB6903F08053002B0DD14C4A4C4BFD
:101E0C00DB6943F08053D361494BDB6903F08053AA
:101E1C00BB60BB680123FB75464B1B6803F48073E6
:101E2C00002B18D1434A434B1B6843F48073136057
:101E3C00FEF716FE386108E0FEF712FE02463B691B
:101E4C00D31A642B01D903236DE03A4B1B6803F4BE
:101E5C008073002BF0D0364B1B6A03F44073FB608D
:101E6C00FB68002B2ED07B685B6803F44072FB6828
:101E7C009A4227D02E4B1B6A23F44073FB602E4BE7
:101E8C0001221A602C4B00221A60294AFB6813624B
:101E9C00FB6803F00103002B14D0FEF7E1FD386161
:101EAC000AE0FEF7DDFD02463B69D31A41F28832A7
:101EBC00934201D9032336E01D4B1B6A03F0020346
:101ECC00002BEED01A491A4B1B6A23F440727B6824
:101EDC005B6813430B62FB7D012B05D1144A144B39
:101EEC00DB6923F08053D3617B681B6803F002032A
:101EFC00002B08D00E490E4B5B6823F440427B68E4
:101F0C009B6813434B607B681B6803F01003002B2A
:101F1C0008D00749064B5B6823F480027B68DB68BA
:101F2C0013434B60002318461837BD4680BD00BFD5
:101F3C0000100240007000404004424290B58DB049
:101F4C0000AF7860554B07F10C040FCB84E80F0001
:101F5C00534B1B883B8100237B620023FB620023D5
:101F6C003B620023FB610023BB627B68022B7FD0AA
:101F7C00102B02D0012B48D08BE04A4B5B68FB61E5
:101F8C00484B1B6803F08073002B7FD0FB699B0CC4
:101F9C0003F00F0307F13002134413F8243C3B62A7
:101FAC00FB6903F48033002B18D03E4B5B685B0C51
:101FBC0003F0010307F13002134413F8283C7B6251
:101FCC00FB6903F48033002B0DD0374A7B6AB2FBDC
:101FDC00F3F33A6A02FB03F3FB6204E03B6A334A15
:101FEC0002FB03F3FB622F4B5B6803F48003B3F536
:101FFC00800F02D1FB6ABB6248E0FB6A5B002C4A93
:10200C00A2FB03235B08BB6240E0264B1B6AFB610F
:10201C00FB6903F44073B3F5807F08D1FB6903F0CF
:10202C000203002B03D04FF40043BB621FE0FB699B
:10203C0003F44073B3F5007F09D11A4B5B6A03F0CC
:10204C000203002B03D049F64043BB620FE0FB694F
:10205C0003F44073B3F5407F1AD1124B1B6803F4A1
:10206C000033002B14D04FF22443BB6210E00FE07E
:10207C00FFF77CFE02460B4B5B689B0B03F00303E4
:10208C0001335B00B2FBF3F3BB6202E000BF00E084
:10209C0000BFBB6A18463437BD4690BD40290008C6
:1020AC00502900080010024000127A0000093D007F
:1020BC00ABAAAAAA80B582B000AF78607B68002B6F
:1020CC0001D101233FE07B6893F83930DBB2002B60
:1020DC0006D17B68002283F83820786800F048FB32
:1020EC007B68242283F839207B681B687A68126825
:1020FC00D26822F40052DA60786800F029F87B6824
:10210C001B687A681268126922F490421A617B6823
:10211C001B687A681268526922F02A025A617B683D
:10212C001B687A681268D26842F40052DA607B68E5
:10213C000022DA637B68202283F839207B68202216
:10214C0083F83A20002318460837BD4680BD0000AE
:10215C0090B585B000AF78607B681B687A681268B0
:10216C00126922F440517A68D2680A431A617B687A
:10217C009A687B681B691A437B685B691343BB6075
:10218C007B681A687B681B68DB6823F4B05323F008
:10219C000C03B9680B43D3607B681B687A681268C0
:1021AC00526922F440717A6892690A435A617B68D9
:1021BC001B682C4A934203D1FFF7D8FDF86002E06C
:1021CC00FFF7C0FDF8607B681968FA6813469B003E
:1021DC0013449A001A447B685B689B00B2FBF3F3D0
:1021EC00214AA2FB03235B091801FA6813469B00E2
:1021FC0013449A001A447B685B689B00B2FBF3F2B1
:10220C00194BA3FB02435B09642404FB03F3D31AAD
:10221C001B013233144AA2FB03235B0903F0F003C6
:10222C001844FA6813469B0013449A001A447B68BE
:10223C005B689B00B2FBF3F20B4BA3FB02435B0905
:10224C00642404FB03F3D31A1B013233064AA2FBAA
:10225C0003235B0903F00F0303448B6000BF1437A7
:10226C00BD4690BD003801401F85EB5180B58AB04A
:10227C0000AFFEF79DFB00F03BF800F01BF900F0FF
:10228C0093F800F0EDF800F0B5F81648FEF756FD9F
:10229C001548FEF7E9FE07F10C0300221A605A609C
:1022AC009A60DA601A615A619A613B1D00221A60C9
:1022BC005A60002140F2AC60FEF72EFA0023FB704E
:1022CC00F91C3B1D40F2AC621846FEF709FB0346B5
:1022DC00002BF5D100224FF400510448FFF744F9CC
:1022EC00EEE700BF34000020E800002000100140A1
:1022FC0080B594B000AF07F12803282200211846BE
:10230C0000F0FAFA07F1140300221A605A609A607E
:10231C00DA601A613B1D00221A605A609A60DA601A
:10232C000123BB624FF48033FB6200233B63012328
:10233C00BB6302237B644FF48033BB644FF4E01324
:10234C00FB6407F128031846FFF726F90346002B18
:10235C0001D000F039F90F237B610223BB6100230C
:10236C00FB614FF480633B624FF4C0637B6207F107
:10237C00140302211846FFF78FFB0346002B01D0F4
:10238C0000F022F902237B604FF44043FB603B1DBD
:10239C001846FFF71DFD0346002B01D000F014F981
:1023AC0000BF5037BD4680BD80B500AF0F4B104A03
:1023BC001A600E4B00229A600C4B00221A730B4BC6
:1023CC0000221A75094B4FF46022DA61074B002288
:1023DC005A60064B01221A610448FEF74BFB034678
:1023EC00002B01D000F0F0F800BF80BD34000020BD
:1023FC000024014080B500AF174B184A1A60164BE9
:10240C0010225A60144B00229A60134B0022DA609F
:10241C00114B4FF430221A610F4B4FF480025A616A
:10242C000D4B00221A760C4B00225A760A4B0022D6
:10243C009A76094B0022DA76074B00221A77064B64
:10244C0000225A770448FEF715FD0346002B01D0F5
:10245C0000F0BAF800BF80BDE80000200064004026
:10246C0080B500AF114B124A1A60104B4FF4165244
:10247C005A600E4B00229A600C4B0022DA600B4B18
:10248C0000221A61094B0C225A61084B00229A61F6
:10249C00064B0022DA610548FFF70CFE0346002BC1
:1024AC0001D000F091F800BF80BD00BFA800002053
:1024BC000044004080B588B000AF07F11003002243
:1024CC001A605A609A60DA603B4A3B4B9B6943F056
:1024DC0010039361384B9B6903F01003FB60FB689E
:1024EC00354A354B9B6943F020039361324B9B6912
:1024FC0003F02003BB60BB682F4A2F4B9B6943F052
:10250C00040393612C4B9B6903F004037B607B6891
:10251C00294A294B9B6943F008039361264B9B691D
:10252C0003F008033B603B6801224FF40051234841
:10253C00FFF71AF800224FF4F0512148FFF714F876
:10254C004FF400533B6101237B610023BB610223E9
:10255C00FB6107F1100319461848FEF7ABFE4FF468
:10256C0070433B6100237B610023BB6107F11003C7
:10257C0019461448FEF79EFE4FF480733B6100230E
:10258C007B610023BB6107F1100319460C48FEF771
:10259C0091FE4FF4F0533B6101237B610023BB613F
:1025AC000223FB6107F1100319460548FEF782FE72
:1025BC0000BF2037BD4680BD001002400010014016
:1025CC0000080140000C014080B400AF00BFBD46C4
:1025DC0080BC704780B485B000AF154A144B9B6922
:1025EC0043F001039361124B9B6903F00103BB6041
:1025FC00BB680F4A0E4BDB6943F08053D3610C4B25
:10260C00DB6903F080537B607B680A4B5B68FB6083
:10261C00FB6823F0E063FB60FB6843F08063FB60C6
:10262C00044AFB68536000BF1437BD4680BC70473A
:10263C00001002400000014080B588B000AF786007
:10264C0007F1100300221A605A609A60DA607B6806
:10265C001B68144A934221D1134A134B9B6943F4D0
:10266C0000739361104B9B6903F40073FB60FB6870
:10267C000D4A0D4B9B6943F0040393610A4B9B6914
:10268C0003F00403BB60BB6803233B6103237B6142
:10269C0007F1100319460548FEF70CFE00BF203762
:1026AC00BD4680BD002401400010024000080140DE
:1026BC0080B58AB000AF786007F1140300221A606D
:1026CC005A609A60DA607B681B68254A934243D152
:1026DC00244A244BDB6943F00073D361214BDB6943
:1026EC0003F000733B613B691E4A1E4B9B6943F030
:1026FC00080393611B4B9B6903F00803FB60FB68A9
:10270C004FF480737B610023BB610023FB6107F1F5
:10271C00140319461448FEF7CDFD4FF400737B618A
:10272C000223BB6103233B6207F1140319460E48D5
:10273C00FEF7C0FD0D4B5B687B627B6A23F4C043E4
:10274C007B627B6A43F0E0637B627B6A43F4804389
:10275C007B62064A7B6A536000BF2837BD4680BD4A
:10276C000064004000100240000C014000000140D9
:10277C0080B588B000AF786007F1100300221A60B2
:10278C005A609A60DA607B681B681B4A93422FD1AF
:10279C001A4A1A4BDB6943F40033D361174BDB69DC
:1027AC0003F40033FB60FB68144A144B9B6943F041
:1027BC0004039361114B9B6903F00403BB60BB687A
:1027CC0004233B6102237B610323FB6107F11003AC
:1027DC0019460B48FEF76EFD08233B6100237B6115
:1027EC000023BB6107F1100319460548FEF762FD93
:1027FC0000BF2037BD4680BD0044004000100240A1
:10280C000008014080B400AF00BFBD4680BC7047DB
:10281C0080B400AFFEE780B400AFFEE780B400AF39
:10282C00FEE780B400AFFEE780B400AF00BFBD464A
:10283C0080BC704780B400AF00BFBD4680BC704701
:10284C0080B400AF00BFBD4680BC704780B500AF00
:10285C00FEF7F4F800BF80BD80B400AF00BFBD46EA
:10286C0080BC7047002103E00B4B5B584350043194
:10287C000A480B4B42189A42F6D30A4A02E000234C
:10288C0042F8043B084B9A42F9D3FFF7E5FF00F0FE
:10289C000FF8FFF7EBFC70477429000800000020CC
:1028AC000C0000200C00002010010020FEE70000AE
:1028BC0070B500250C4E0D4CA41BA410A54209D1DB
:1028CC0000F022F800250A4E0A4CA41BA410A542C5
:1028DC0005D170BD56F8253098470135EEE756F80E
:1028EC00253098470135F2E76C2900086C2900085F
:1028FC006C2900087029000803460244934200D159
:10290C00704703F8011BF9E7F8B500BFF8BC08BC29
:10291C009E467047F8B500BFF8BC08BC9E46704791
:10292C0002030405060708090A0B0C0D0E0F101004
:10293C000102000002030405060708090A0B0C0D2E
:10294C000E0F10100102000000000000000000003B
:10295C000102030406070809000000000102030439
:04296C00310100082D
:042970000D0100084D
:0C29740010000000010000000024F4002E
:040000050800287156
:00000001FF
