:020000040800F2
:10000000005000206D160008BD160008BD1600083F
:10001000BD160008BD160008BD160008000000004F
:10002000000000000000000000000000BD160008F5
:10003000BD16000800000000BD160008C11300082E
:10004000BD160008BD160008BD160008BD16000844
:10005000BD160008BD160008BD160008BD16000834
:10006000BD160008BD160008BD160008BD16000824
:10007000BD160008BD160008BD160008BD16000814
:10008000BD160008BD160008BD160008B10D000819
:10009000E90D0008750E00080D0F0008BD160008D8
:1000A000BD160008BD160008BD160008BD160008E4
:1000B000BD160008BD160008BD160008BD160008D4
:1000C000BD160008BD160008BD160008BD160008C4
:1000D000BD160008BD160008BD160008BD160008B4
:1000E000BD160008BD16000800000000BD1600087F
:1000F000BD160008BD160008BD160008BD16000894
:10010000BD160008BD160008BD160008BD16000883
:10011000BD160008BD160008BD160008BD16000873
:10012000BD160008BD160008BD160008BD16000863
:1001300010B5054C237833B9044B13B10448AFF321
:1001400000800123237010BD00000020000000008B
:100150000817000808B5034B1BB103490348AFF368
:10016000008008BD000000000400002008170008FF
:1001700080B582B000AF78600B46FB707B68564A52
:10018000934204D07B68554A934240F0A1801921E4
:10019000012001F097F8002001F048F808220B2117
:1001A000002000F0C1FE0B220C21002000F0BCFE5C
:1001B000FB78002B02D0012B45D08AE07B681B68BE
:1001C00043F001027B681A6000BF7B685B6803F044
:1001D0000103002BF9D07B681B6823F002027B68C7
:1001E0001A6000BF7B685B6803F00203002BF9D143
:1001F0007B6800225A617B681B6823F004027B68DD
:100200001A607B681B6823F008027B681A607B68B1
:100210001B6843F010027B681A607B681B6823F040
:1002200020027B681A607B681B6823F040027B68B1
:100230001A607B681B6823F080027B681A607B6809
:10024000274ADA6145E07B681B6843F001027B685E
:100250001A6000BF7B685B6803F00103002BF9D0D4
:100260007B681B6823F002027B681A6000BF7B6812
:100270005B6803F00203002BF9D17B6800225A610E
:100280007B681B6843F004027B681A607B681B680C
:1002900043F008027B681A607B681B6823F0100239
:1002A0007B681A607B681B6843F020027B681A60D9
:1002B0007B681B6823F040027B681A607B681B68C0
:1002C00043F080027B681A607B68064ADA6100E0CE
:1002D00000BF0837BD4680BD006400400068004094
:1002E0000700010100002DC180B483B000AF786029
:1002F0000B46FB707B68254A934203D07B68244AF7
:1003000093423ED1FB78022B19D0022B3ADC002B12
:1003100029D0012B36D17B681B6843F002027B6831
:100320001A607B681B6823F001027B681A6000BFBB
:100330007B685B6803F00203002BF9D022E07B6846
:100340001B6843F001027B681A607B681B6823F01E
:1003500002027B681A6000BF7B685B6803F00103E0
:10036000002BF9D00EE07B681B6823F001027B684C
:100370001A6000BF7B685B6803F00103002BF9D0B3
:1003800000E000BF0C37BD4680BC704700640040F1
:100390000068004090B482B000AF78609D4BD3F805
:1003A00000329C4A43F00103C2F80032994BD3F863
:1003B0001C327A68927B114601228A40D243114650
:1003C000944A0B40C2F81C32924BD3F804327A683C
:1003D000927B114601228A40D24313407A68D27B35
:1003E00011467A68927B01FA02F21146894A0B4360
:1003F000C2F80432874BD3F80C327A68927B1146EC
:1004000001228A40D24313407A68127C11467A68EE
:10041000927B01FA02F211467E4A0B43C2F80C327B
:100420007C4BD3F814327A68927B114601228A40C1
:10043000D24313407A68928911467A68927B01FA16
:1004400002F21146734A0B43C2F81432714BD3F8CF
:100450001C327A68927B114601228A40D2431340B3
:100460007A68527C11467A68927B01FA02F2114650
:10047000684A0B43C2F81C327B681B7C002B5DD0A2
:10048000012B40F0BA807B68DB7B002B02D0012B74
:1004900031D0B2E05F4A7B68DB7B4833DB0013443A
:1004A00000225A605B4A7B68DB7B4833002142F8BC
:1004B00033107B681B891B047A685289144655499E
:1004C0007A68D27B104643EA040200F14803DB005D
:1004D0000B445A607B685B881B047A681288144658
:1004E0004C497A68D27B104643EA040200F1480383
:1004F00041F8332021E07B685B881B047A6812880E
:10050000144644497A68927B104643EA040200F19B
:10051000480341F833207B68DB881B047A689288A3
:1005200014463C497A68927B104643EA040200F183
:100530004803DB000B445A6000BF5EE07B68DB7B56
:10054000002B02D0012B36D056E07B681988314A47
:100550007B689B7B483342F833107B6899882D4A2F
:100560007B689B7B4833DB0013445960294A7B68D6
:100570009B7B483352F833207B685B891B042548FA
:100580007968897B1A4301F1480340F83320214AF6
:100590007B689B7B4833DB0013445A687B681B896C
:1005A0001B041C487968897B1A4301F14803DB006E
:1005B00003445A6020E07B681B881C467B685B888C
:1005C0001B0414497A68927B104644EA030200F146
:1005D000480341F833207B689B881C467B68DB8896
:1005E0001B040C497A68927B104644EA030200F12E
:1005F000480341F8332000BF00BF064BD3F8003258
:10060000044A23F00103C2F8003200BF0837BD4698
:1006100090BC70470064004080B483B000AF0346D4
:10062000FB710E4B0E4AC3F800220C4BD3F800228C
:10063000FB791B0203F47C5308491343C1F80032D1
:10064000064BD3F80032054A23F00103C2F800320A
:1006500000BF0C37BD4680BC704700BF006400403F
:10066000010E1C2A80B485B000AF786039607B68C9
:100670009B6803F08063002B02D00023FB7315E01E
:100680007B689B6803F00063002B02D00123FB739F
:100690000CE07B689B6803F08053002B02D00223A0
:1006A000FB7303E00423FB73FB7B86E03B681B7A50
:1006B000002B0ED13B681B685A053B685B7A5B00D8
:1006C0001946FB7B0A43796818331B010B441A60F7
:1006D00015E03B681B7A012B11D13B685B68DB009E
:1006E0003A68127A92001A433B685B7A5B001946BB
:1006F000FB7B0A43796818331B010B441A60FB7BB0
:100700007A6818331B01134404331A68FB7B22F008
:100710000F02796818331B010B4404331A60FB7B0A
:100720007A6818331B011344043319683B689B7AB9
:1007300003F00F02FB7B0A43796818331B010B445B
:1007400004331A603B689B7C1A063B685B7C1B0485
:100750001A433B681B7C1B021A433B68DB7B194630
:10076000FB7B0A4379681B010B4403F5C6731A60CF
:100770003B689B7B1A063B685B7B1B041A433B6808
:100780001B7B1B021A433B68DB7A1946FB7B0A433F
:1007900079681B010B4403F5C4731A60FB7B7A680C
:1007A00018331B0113441A68FB7B42F0010279687D
:1007B00018331B010B441A60FB7B18461437BD46E7
:1007C00080BC704780B485B000AFF8600B467A609B
:1007D000FB72FB7A002B02D0012B07D00FE0FB68E5
:1007E000DB6803F00303002B08D1C8E0FB681B693A
:1007F00003F00303002B00F0C18000E000BFFB7A90
:10080000FA681B331B0113441B689B08DBB203F01F
:100810000103DAB27B681A727B681B7A002B02D064
:10082000012B0DD018E0FB7AFA681B331B0113442F
:100830001B685B0D9BB2C3F30A027B681A600BE076
:10084000FB7AFA681B331B0113441B68DB0823F097
:1008500060427B685A6000BFFB7AFA681B331B0159
:1008600013441B685B08DBB203F00103DAB27B6858
:100870005A72FB7AFA681B331B01134404331B685A
:10088000DBB203F00F03DAB27B689A72FB7AFA6884
:100890001B331B01134404331B681B0ADBB203F038
:1008A0000F03DAB27B68DA74FB7AFA681B0113442F
:1008B00003F5DC731B68DAB27B68DA72FB7AFA68DC
:1008C0001B01134403F5DC731B681B0ADAB27B6857
:1008D0001A73FB7AFA681B01134403F5DC731B6877
:1008E0001B0CDAB27B685A73FB7AFA681B0113445B
:1008F00003F5DC731B681B0EDAB27B689A73FB7A14
:10090000FA681B01134403F5DE731B68DAB27B68D7
:10091000DA73FB7AFA681B01134403F5DE731B6874
:100920001B0ADAB27B681A74FB7AFA681B0113445B
:1009300003F5DE731B681B0CDAB27B685A74FB7A12
:10094000FA681B01134403F5DE731B681B0EDAB251
:100950007B689A74FB7A002B02D0012B07D00EE043
:10096000FB68DB6843F02002FB68DA6007E0FB68A5
:100970001B6943F02002FB681A6100E000BF1437D6
:10098000BD4680BC704780B487B000AFF860B960E6
:1009900011461A460B46FB711346BB7100237B615F
:1009A00000233B8297F8203003F0010387F82030C2
:1009B000FB79002B02D0012B44D0A7E0FB68C3F3E6
:1009C0000A03FB60BB79002B1DD0012B40F09B80FC
:1009D000FB7903F00103DAB23B7D62F382033B75DE
:1009E00097F8203003F00103DAB23B7D62F3410354
:1009F0003B75FB68C3F30A039AB2FB8A62F34F1399
:100A0000FB827B6983E0FB7903F00103DAB23B7D73
:100A100062F382033B7597F8203003F00103DAB2EA
:100A20003B7D62F341033B75FB6803F00703DAB2D9
:100A30003B7C62F347133B74FB68DB08DBB27B74DF
:100A40003B8A64E0FB68C3F30A03FB60BB68C3F343
:100A50001103BB60BB79002B2DD0012B55D1FB7945
:100A600003F00103DAB23B7D62F382033B7597F832
:100A7000203003F00103DAB23B7D62F341033B75A2
:100A8000FB68C3F30A039AB2FB8A62F34F13FB823B
:100A9000BB68C3F30C039AB2BB8A62F3CF03BB8279
:100AA000BB685B0B03F01F03DAB2BB7D62F3040388
:100AB000BB757B692BE0FB7903F00103DAB23B7C69
:100AC00062F3C3033B7497F8203003F00103DAB2FA
:100AD0003B7C62F304133B74FB6803F00703DAB258
:100AE0003B7C62F347133B74FB68DB08DBB27B742F
:100AF000BB68DB0B03F00703DAB23B7C62F3020353
:100B00003B743B8A03E000BF00E000BF00231846AF
:100B10001C37BD4680BC704780B58CB002AF786092
:100B20000B46FB706D4B1B78DBB21C2B01D10823ED
:100B3000D0E0002387F8273000233B62FB78002BAE
:100B400002D0012B0AD016E0FA780023009301238B
:100B500000217868FFF717FF38620CE07B68980C7B
:100B60007B68C3F31101FA78002300930123FFF798
:100B70000AFF386200BF0023FB770123BB773BE00D
:100B8000574BD3F81C32FA7F012101FA02F21A40C6
:100B9000FB7F22FA03F3002B09D10023BB774F4BD5
:100BA0001B78DBB20133DAB24C4B1A7027E04C4AA7
:100BB000FB7F483352F83330002B07D0484AFB7F85
:100BC0004833DB0013445B68002B12D1444AFB7F9F
:100BD000483352F83330002B01D1012300E00223C7
:100BE000BB773E4B1B78DBB20133DAB23B4B1A705A
:100BF00005E0FB7F0133FB77FB7F1B2BC0D9FB7F1D
:100C00001C2B06D197F8273043F0080387F82730CC
:100C10005EE007F10C0300221A605A609A60DA6005
:100C20001A820123FB7600233B8301237B77012378
:100C30003B77FB7FBB76BB7F022B2BD0022B40DCAC
:100C4000002B02D0012B0CD03BE03B6A9BB2BB8156
:100C50003B6A1B0C9BB2FB8100233B8200237B82FF
:100C600030E03B6A9BB2BB813B6A1B0C9BB2FB81B1
:100C70001B4AFB7F4833DB0013445B689BB23B821B
:100C8000174AFB7F4833DB0013445B681B0C9BB2A5
:100C90007B8217E03B6A9BB23B823B6A1B0C9BB298
:100CA0007B820F4AFB7F483352F833309BB2BB81C3
:100CB0000B4AFB7F483352F833301B0C9BB2FB814D
:100CC00000E000BF07F10C031846FFF763FB00BF0D
:100CD00097F8273018462837BD4680BD1C000020F5
:100CE0000064004080B58AB000AFF860B9607A60F7
:100CF000FB68002B02D0BB68002B01D1042351E01C
:100D0000002387F8273007F1100300221A605A6089
:100D10009A60DA601A61254BDB6803F00303002B4D
:100D200007D007F110031A4600212048FFF74AFDBB
:100D300014E01E4B1B6903F00303002B07D007F1DF
:100D400010031A4601211948FFF73CFD06E097F809
:100D5000273043F0200387F8273021E0BA7EBB68B4
:100D60001A70002387F826300FE097F8262097F8AE
:100D70002630F9680B4428323A4412F80D2C1A70C8
:100D800097F82630013387F82630BB7E97F8262067
:100D90009A42EAD37B69DA023B691A437B681A609C
:100DA00097F8273018462837BD4680BD00640040BC
:100DB00080B500AF09490A48FFF754FC084B5B694E
:100DC000074A23F001035361064B1B68002B02D036
:100DD000044B1B68984700BF80BD00BF2000002067
:100DE000006400404000002080B586B000AF3B4664
:100DF00000221A605A609A60DA601A613B461A460D
:100E000000211748FFF7DEFC164B1B68BA7A1A70F0
:100E10000023FB750CE0FA7D134B1968FB7D0B4436
:100E200018323A4412F80D2C1A70FB7D0133FB7511
:100E3000BB7AFA7D9A42EED33B7A012B01D17B68D3
:100E400000E03B68094A12681360094B1B68002BDD
:100E500002D0074B1B68984700BF1837BD4680BDBE
:100E60000064004038000020340000203C000020D6
:100E70004400002080B586B000AF3B4600221A60D7
:100E80005A609A60DA601A613B461A4601211A4894
:100E9000FFF798FC194B1B68BA7A1A700023FB7590
:100EA0000CE0FA7D164B1968FB7D0B4418323A446E
:100EB00012F80D2C1A70FB7D0133FB75BB7AFA7D9D
:100EC0009A42EED33B7A012B01D17B6800E03B686C
:100ED0000C4A12681360084B5B69074A23F0100341
:100EE0005361094B1B68002B02D0074B1B689847C6
:100EF00000BF1837BD4680BD0064004038000020A8
:100F0000340000203C0000204800002080B500AFE5
:100F1000044B1B68002B02D0024B1B68984700BF94
:100F200080BD00BF4C00002080B483B000AF0346FA
:100F3000FB710B46BB7113467B71FB79022B78D09A
:100F4000022B00F3AE80002B02D0012B39D0A8E099
:100F5000BB79072B17D8594B1B68BA7992000F2120
:100F600001FA02F2D2431146544A0B401360534B2C
:100F70001B687979BA79920001FA02F211464F4A58
:100F80000B4313608FE0BB790F2B00F28C804B4B2F
:100F90005B68BA79083A92000F2101FA02F2D24353
:100FA0001146464A0B405360444B5B687979BA79E5
:100FB000083A920001FA02F21146404A0B4353608C
:100FC00071E0BB79072B17D83D4B1B68BA799200AB
:100FD0000F2101FA02F2D2431146394A0B40136045
:100FE000374B1B687979BA79920001FA02F21146FF
:100FF000334A0B43136058E0BB790F2B55D8304B65
:101000005B68BA79083A92000F2101FA02F2D243E2
:1010100011462B4A0B405360294B5B687979BA79AA
:10102000083A920001FA02F21146254A0B43536036
:101030003BE0BB79072B17D8224B1B68BA7992008B
:101040000F2101FA02F2D24311461E4A0B401360EF
:101050001C4B1B687979BA79920001FA02F21146A9
:10106000184A0B43136022E0BB790F2B1FD8154B96
:101070005B68BA79083A92000F2101FA02F2D24372
:101080001146104A0B4053600E4B5B687979BA7970
:10109000083A920001FA02F211460A4A0B435360E1
:1010A00005E000BF04E000BF02E000BF00E000BFB9
:1010B00000BF0C37BD4680BC704700BF0008014030
:1010C000000C01400010014080B483B000AF034623
:1010D000FB710B46BB7113467B71BB790F2B54D848
:1010E000FB79022B38D0022B51DC002B02D0012BD4
:1010F00019D04CE07B79002B0AD0274B1B69BA79B9
:10110000012101FA02F21146234A0B4313613FE029
:10111000214B5B69BA79012101FA02F211461E4A9C
:101120000B43536134E07B79002B0AD01B4B1B69C6
:10113000BA79012101FA02F21146184A0B431361F0
:1011400026E0164B5B69BA79012101FA02F21146D9
:10115000124A0B4353611BE07B79002B0AD0104BE2
:101160001B69BA79012101FA02F211460C4A0B43BC
:1011700013610DE00A4B5B69BA79012101FA02F2B1
:101180001146074A0B43536102E000BF00E000BF75
:101190000C37BD4680BC704700080140000C014080
:1011A0000010014080B483B000AF03460A46FB71D3
:1011B0001346BB71BB790F2B2AD8FB79022B1CD0AD
:1011C000022B27DC002B02D0012B0BD022E0144B8A
:1011D000DB68BA79012101FA02F21146104A4B404C
:1011E000D36018E00F4BDB68BA79012101FA02F2F3
:1011F00011460C4A4B40D3600DE00B4BDB68BA79CB
:10120000012101FA02F21146074A4B40D36002E085
:1012100000BF00E000BF0C37BD4680BC704700BF78
:1012200000080140000C01400010014080B582B070
:1012300000AF0346FB71FB79022B10D0022B13DCAD
:10124000002B02D0012B05D00EE00221022000F07D
:1012500039F80AE00321022000F034F805E0042107
:10126000022000F02FF800E000BF00BF0837BD46A5
:1012700080BD000080B400AF114B00221A60104BFB
:1012800000225A600E4B1B680D4A43F480331360F2
:101290000B4B5B680A4A43F00103536000BF084BE5
:1012A0001B6803F40033002BF9D0054B5B68044A3C
:1012B00043F00103536000BFBD4680BC704700BFD0
:1012C0000010024080B483B000AF03460A46FB71B1
:1012D0001346BB71BB791F2B29D8FB79022B10D089
:1012E000022B26DC002B17D0012B22D1134BDB69FC
:1012F000BA79012101FA02F21146104A0B43D36177
:1013000018E00E4B9B69BA79012101FA02F21146ED
:101310000A4A0B4393610DE0084B5B69BA790121DE
:1013200001FA02F21146054A0B43536102E000BF85
:1013300000E000BF0C37BD4680BC70470010024083
:1013400080B400AF0B4B00221A600A4B6FF07F4253
:101350005A60084B00229A60074B00221A60074B24
:1013600003221A70064B00221A6000BFBD4680BCE3
:10137000704700BF10E000E0540000205000002043
:101380005C00002080B400AF0A4B1B68094A23F0C0
:1013900001031360074B1B68064A23F00203136026
:1013A000054B03221A70054B00221A6000BFBD4690
:1013B00080BC704710E000E0500000205400002086
:1013C00080B500AF184B1B680133174A1360174BE9
:1013D0001B78DBB2012B0FD1134B1A68144B1B681F
:1013E0009A4209D1134B1B68002B02D0114B1B688A
:1013F0009847FFF7C7FF14E00C4B1B78DBB2022BBA
:101400000FD1094B1A680A4B1B689A4209D1094B44
:101410001B68002B02D0074B1B689847024B002229
:101420001A6000BF80BD00BF5C000020500000209B
:10143000580000205400002080B485B000AF7860D0
:101440003423FB608023BB60FB681A01BB681F4923
:10145000A1FB03135B091A437B689A607B68002237
:101460001A607B68DB6843F400527B68DA607B6853
:10147000DB6843F004027B68DA607B68DB6843F07A
:1014800008027B68DA607B68DB6843F020027B68D7
:10149000DA607B68DB6823F480627B68DA607B68F3
:1014A000DB6823F480527B68DA607B681B6923F475
:1014B00080527B681A617B681B6923F400527B6849
:1014C0001A6100BF1437BD4680BC70471F85EB51C1
:1014D00080B483B000AF78600B46FB70FA787B680D
:1014E0005A6000BF7B681B6803F04003002BF9D0F3
:1014F0007B681B6823F040027B681A6000BF0C37D2
:10150000BD4680BC7047000080B483B000AF0023AC
:101510007B6002E07B6801337B607B68044A934216
:10152000F8DD00BF00BF0C37BD4680BC704700BF70
:10153000DF93040080B582B000AF00237B6008E039
:101540000D210220FFF72EFEFFF7DEFF7B6801333F
:101550007B607B68042BF3DD00BF00BF0837BD460E
:1015600080BD80B500AFFFF785FEFFF7E9FE00BF45
:1015700080BD80B500AF0220FFF758FE02220D218A
:101580000220FFF7D1FC01220D210220FFF79CFD74
:1015900000BF80BD80B500AF00210848FEF7E8FD20
:1015A000002140F2AC60FFF7B7FA0E20FFF734F8E5
:1015B00000210248FEF798FE00BF80BD0064004095
:1015C00080B500AF12210120FFF77CFE0120FFF75C
:1015D0002DFE0B220A210120FFF7A6FC08220B2179
:1015E0000120FFF7A1FC0248FFF726FF00BF80BDE6
:1015F0000048004080B586B000AFFFF7B2FFFFF7AC
:10160000B8FFFFF7C7FFFFF7DBFF164A07F1080334
:1016100007CA03C31A800023FB7100233B6000BF8D
:101620003A46F91D07F108031846FFF75BFB03462E
:10163000002BF5D1FFF77EFF00237B610BE007F164
:1016400008027B6913441B7819460748FFF740FFDF
:101650007B6901337B617B69072BF0DDFFF754FF6A
:10166000DDE700BF20170008004800400D48854610
:10167000AFF300800C480D490D4A002302E0D45816
:10168000C4500433C4188C42F9D30A4A0A4C0023CC
:1016900001E013600432A242FBD300F011F8FFF71F
:1016A000A9FFFEE7005000200000002000000020FD
:1016B000341700080000002060000020FEE7000052
:1016C00070B500260C4D0D4C641BA410A64209D128
:1016D00000F01AF800260A4D0A4C641BA410A6421A
:1016E00005D170BD55F8043B98470136EEE755F833
:1016F000043B98470136F2E72C1700082C17000826
:101700002C17000830170008F8B500BFF8BC08BC5B
:101710009E467047F8B500BFF8BC08BC9E467047AF
:0C1720004142434445464748494A000006
:04172C00550100085B
:04173000310100087B
:040000050800166D6C
:00000001FF
